{"abi":[{"type":"constructor","inputs":[{"name":"_usdc","type":"address","internalType":"address"},{"name":"_maxDrawdownBps","type":"uint256","internalType":"uint256"},{"name":"_maxPositionSizeBps","type":"uint256","internalType":"uint256"}],"stateMutability":"nonpayable"},{"type":"function","name":"authorizedAgents","inputs":[{"name":"","type":"address","internalType":"address"}],"outputs":[{"name":"","type":"bool","internalType":"bool"}],"stateMutability":"view"},{"type":"function","name":"balances","inputs":[{"name":"","type":"address","internalType":"address"}],"outputs":[{"name":"","type":"uint256","internalType":"uint256"}],"stateMutability":"view"},{"type":"function","name":"checkDrawdownLimit","inputs":[{"name":"user","type":"address","internalType":"address"},{"name":"proposedTradeUSDC","type":"uint256","internalType":"uint256"}],"outputs":[{"name":"ok","type":"bool","internalType":"bool"}],"stateMutability":"view"},{"type":"function","name":"checkPositionSize","inputs":[{"name":"proposedTradeUSDC","type":"uint256","internalType":"uint256"}],"outputs":[{"name":"ok","type":"bool","internalType":"bool"}],"stateMutability":"view"},{"type":"function","name":"deposit","inputs":[{"name":"amount","type":"uint256","internalType":"uint256"}],"outputs":[],"stateMutability":"nonpayable"},{"type":"function","name":"getRiskParams","inputs":[],"outputs":[{"name":"drawdownBps","type":"uint256","internalType":"uint256"},{"name":"positionBps","type":"uint256","internalType":"uint256"},{"name":"isPaused","type":"bool","internalType":"bool"}],"stateMutability":"view"},{"type":"function","name":"highWaterMark","inputs":[{"name":"","type":"address","internalType":"address"}],"outputs":[{"name":"","type":"uint256","internalType":"uint256"}],"stateMutability":"view"},{"type":"function","name":"maxDrawdownBps","inputs":[],"outputs":[{"name":"","type":"uint256","internalType":"uint256"}],"stateMutability":"view"},{"type":"function","name":"maxPositionSizeBps","inputs":[],"outputs":[{"name":"","type":"uint256","internalType":"uint256"}],"stateMutability":"view"},{"type":"function","name":"owner","inputs":[],"outputs":[{"name":"","type":"address","internalType":"address"}],"stateMutability":"view"},{"type":"function","name":"paused","inputs":[],"outputs":[{"name":"","type":"bool","internalType":"bool"}],"stateMutability":"view"},{"type":"function","name":"renounceOwnership","inputs":[],"outputs":[],"stateMutability":"nonpayable"},{"type":"function","name":"setAgentAuthorization","inputs":[{"name":"agent","type":"address","internalType":"address"},{"name":"status","type":"bool","internalType":"bool"}],"outputs":[],"stateMutability":"nonpayable"},{"type":"function","name":"setPaused","inputs":[{"name":"_paused","type":"bool","internalType":"bool"}],"outputs":[],"stateMutability":"nonpayable"},{"type":"function","name":"setRiskLimits","inputs":[{"name":"_maxDrawdownBps","type":"uint256","internalType":"uint256"},{"name":"_maxPositionSizeBps","type":"uint256","internalType":"uint256"}],"outputs":[],"stateMutability":"nonpayable"},{"type":"function","name":"totalDeposits","inputs":[],"outputs":[{"name":"","type":"uint256","internalType":"uint256"}],"stateMutability":"view"},{"type":"function","name":"transferOwnership","inputs":[{"name":"newOwner","type":"address","internalType":"address"}],"outputs":[],"stateMutability":"nonpayable"},{"type":"function","name":"usdc","inputs":[],"outputs":[{"name":"","type":"address","internalType":"contract IERC20"}],"stateMutability":"view"},{"type":"function","name":"withdraw","inputs":[{"name":"amount","type":"uint256","internalType":"uint256"}],"outputs":[],"stateMutability":"nonpayable"},{"type":"event","name":"AgentAuthorized","inputs":[{"name":"agent","type":"address","indexed":true,"internalType":"address"},{"name":"status","type":"bool","indexed":false,"internalType":"bool"}],"anonymous":false},{"type":"event","name":"Deposited","inputs":[{"name":"user","type":"address","indexed":true,"internalType":"address"},{"name":"amount","type":"uint256","indexed":false,"internalType":"uint256"}],"anonymous":false},{"type":"event","name":"OwnershipTransferred","inputs":[{"name":"previousOwner","type":"address","indexed":true,"internalType":"address"},{"name":"newOwner","type":"address","indexed":true,"internalType":"address"}],"anonymous":false},{"type":"event","name":"RiskLimitsUpdated","inputs":[{"name":"maxDrawdownBps","type":"uint256","indexed":false,"internalType":"uint256"},{"name":"maxPositionBps","type":"uint256","indexed":false,"internalType":"uint256"}],"anonymous":false},{"type":"event","name":"Withdrawn","inputs":[{"name":"user","type":"address","indexed":true,"internalType":"address"},{"name":"amount","type":"uint256","indexed":false,"internalType":"uint256"}],"anonymous":false},{"type":"error","name":"ExceedsMaxDrawdown","inputs":[{"name":"requested","type":"uint256","internalType":"uint256"},{"name":"limit","type":"uint256","internalType":"uint256"}]},{"type":"error","name":"ExceedsMaxPositionSize","inputs":[{"name":"requested","type":"uint256","internalType":"uint256"},{"name":"limit","type":"uint256","internalType":"uint256"}]},{"type":"error","name":"InsufficientBalance","inputs":[{"name":"available","type":"uint256","internalType":"uint256"},{"name":"requested","type":"uint256","internalType":"uint256"}]},{"type":"error","name":"NotAuthorizedAgent","inputs":[]},{"type":"error","name":"OwnableInvalidOwner","inputs":[{"name":"owner","type":"address","internalType":"address"}]},{"type":"error","name":"OwnableUnauthorizedAccount","inputs":[{"name":"account","type":"address","internalType":"address"}]},{"type":"error","name":"ReentrancyGuardReentrantCall","inputs":[]},{"type":"error","name":"SafeERC20FailedOperation","inputs":[{"name":"token","type":"address","internalType":"address"}]},{"type":"error","name":"VaultPaused","inputs":[]},{"type":"error","name":"ZeroAmount","inputs":[]}],"bytecode":{"object":"0x60a060405234801561000f575f80fd5b50604051610ca1380380610ca183398101604081905261002e91610128565b338061005357604051631e4fbdf760e01b81525f600482015260240160405180910390fd5b61005c816100d9565b5060017f9b779b17422d0df92223018b32b4d1fa46e071723d6817e2486d003becc55f00556001600160a01b0383166080526003829055600481905560408051838152602081018390527fd522bcc14f0808816823c8f11786a79704f2bf607aa80d9e733844ec59a820bd910160405180910390a1505050610167565b5f80546001600160a01b038381166001600160a01b0319831681178455604051919092169283917f8be0079c531659141344cd1fd0a4f28419497f9722a3daafe3b4186f6b6457e09190a35050565b5f805f6060848603121561013a575f80fd5b83516001600160a01b0381168114610150575f80fd5b602085015160409095015190969495509392505050565b608051610b1461018d5f395f81816101920152818161044a01526106180152610b145ff3fe608060405234801561000f575f80fd5b506004361061011c575f3560e01c806369794795116100a9578063b6b55f251161006e578063b6b55f2514610281578063e23b6b5514610294578063efd76065146102a7578063f2fde38b146102c9578063f9fd7cac146102dc575f80fd5b80636979479514610224578063715018a61461024d578063770330ea146102555780637d882097146102685780638da5cb5b14610271575f80fd5b80633e413bee116100ef5780633e413bee1461018d5780635661d461146101cc57806357da2e91146101d55780635c975abb146101f45780636604672414610211575f80fd5b80630911e8641461012057806316c38b3c1461013557806327e235e3146101485780632e1a7d4d1461017a575b5f80fd5b61013361012e3660046109a5565b6102e5565b005b6101336101433660046109d6565b61034b565b6101676101563660046109f6565b60016020525f908152604090205481565b6040519081526020015b60405180910390f35b610133610188366004610a0f565b610366565b6101b47f000000000000000000000000000000000000000000000000000000000000000081565b6040516001600160a01b039091168152602001610171565b61016760035481565b6101676101e33660046109f6565b60076020525f908152604090205481565b6005546102019060ff1681565b6040519015158152602001610171565b61020161021f366004610a26565b6104d3565b60035460045460055460ff16604080519384526020840192909252151590820152606001610171565b61013361055d565b610133610263366004610a4e565b610570565b61016760025481565b5f546001600160a01b03166101b4565b61013361028f366004610a0f565b6105bf565b6102016102a2366004610a0f565b6106ea565b6102016102b53660046109f6565b60066020525f908152604090205460ff1681565b6101336102d73660046109f6565b610711565b61016760045481565b6102ed61074b565b6001600160a01b0382165f81815260066020908152604091829020805460ff191685151590811790915591519182527f1b06338d0edf2ba8ccee31e466ab37b376418209af6a85c55c51e89a51e33bde910160405180910390a25050565b61035361074b565b6005805460ff1916911515919091179055565b61036e610777565b60055460ff1615610392576040516336a7e2cd60e21b815260040160405180910390fd5b805f036103b257604051631f2a200560e01b815260040160405180910390fd5b335f9081526001602052604090205481111561040157335f908152600160205260409081902054905163cf47918160e01b81526004810191909152602481018290526044015b60405180910390fd5b335f908152600160205260408120805483929061041f908490610a82565b925050819055508060025f8282546104379190610a82565b9091555061047190506001600160a01b037f00000000000000000000000000000000000000000000000000000000000000001633836107a5565b60405181815233907f7084f5476618d8e60b11ef0d7d3f06914655adb8793e28ff7f018d4c76d505d5906020015b60405180910390a26104d060017f9b779b17422d0df92223018b32b4d1fa46e071723d6817e2486d003becc55f0055565b50565b6001600160a01b0382165f90815260016020908152604080832054600790925282205480830361050857600192505050610557565b5f6127106003548361051a9190610a95565b6105249190610aac565b90505f838311610534575f61053e565b61053e8484610a82565b90505f61054b8783610acb565b92909211159450505050505b92915050565b61056561074b565b61056e5f6107df565b565b61057861074b565b6003829055600481905560408051838152602081018390527fd522bcc14f0808816823c8f11786a79704f2bf607aa80d9e733844ec59a820bd910160405180910390a15050565b6105c7610777565b60055460ff16156105eb576040516336a7e2cd60e21b815260040160405180910390fd5b805f0361060b57604051631f2a200560e01b815260040160405180910390fd5b6106406001600160a01b037f00000000000000000000000000000000000000000000000000000000000000001633308461082e565b335f908152600160205260408120805483929061065e908490610acb565b925050819055508060025f8282546106769190610acb565b9091555050335f9081526007602090815260408083205460019092529091205411156106b857335f908152600160209081526040808320546007909252909120555b60405181815233907f2da466a7b24304f47e87fa2e1e5a81b9831ce54fec19055ce277ca2f39ba42c49060200161049f565b5f6127106004546002546106fe9190610a95565b6107089190610aac565b90911115919050565b61071961074b565b6001600160a01b03811661074257604051631e4fbdf760e01b81525f60048201526024016103f8565b6104d0816107df565b5f546001600160a01b0316331461056e5760405163118cdaa760e01b81523360048201526024016103f8565b61077f61086a565b60027f9b779b17422d0df92223018b32b4d1fa46e071723d6817e2486d003becc55f0055565b6107b283838360016108ac565b6107da57604051635274afe760e01b81526001600160a01b03841660048201526024016103f8565b505050565b5f80546001600160a01b038381166001600160a01b0319831681178455604051919092169283917f8be0079c531659141344cd1fd0a4f28419497f9722a3daafe3b4186f6b6457e09190a35050565b61083c84848484600161090e565b61086457604051635274afe760e01b81526001600160a01b03851660048201526024016103f8565b50505050565b7f9b779b17422d0df92223018b32b4d1fa46e071723d6817e2486d003becc55f005460020361056e57604051633ee5aeb560e01b815260040160405180910390fd5b60405163a9059cbb60e01b5f8181526001600160a01b038616600452602485905291602083604481808b5af1925060015f511483166109025783831516156108f6573d5f823e3d81fd5b5f873b113d1516831692505b60405250949350505050565b6040516323b872dd60e01b5f8181526001600160a01b038781166004528616602452604485905291602083606481808c5af1925060015f5114831661096a57838315161561095e573d5f823e3d81fd5b5f883b113d1516831692505b604052505f60605295945050505050565b80356001600160a01b0381168114610991575f80fd5b919050565b80358015158114610991575f80fd5b5f80604083850312156109b6575f80fd5b6109bf8361097b565b91506109cd60208401610996565b90509250929050565b5f602082840312156109e6575f80fd5b6109ef82610996565b9392505050565b5f60208284031215610a06575f80fd5b6109ef8261097b565b5f60208284031215610a1f575f80fd5b5035919050565b5f8060408385031215610a37575f80fd5b610a408361097b565b946020939093013593505050565b5f8060408385031215610a5f575f80fd5b50508035926020909101359150565b634e487b7160e01b5f52601160045260245ffd5b8181038181111561055757610557610a6e565b808202811582820484141761055757610557610a6e565b5f82610ac657634e487b7160e01b5f52601260045260245ffd5b500490565b8082018082111561055757610557610a6e56fea2646970667358221220b0315c6d2260cf1a7dee033987608ec52c124a9c73a8be224f2a589be145662364736f6c63430008180033","linkReferences":{}},"methodIdentifiers":{"authorizedAgents(address)":"efd76065","balances(address)":"27e235e3","checkDrawdownLimit(address,uint256)":"66046724","checkPositionSize(uint256)":"e23b6b55","deposit(uint256)":"b6b55f25","getRiskParams()":"69794795","highWaterMark(address)":"57da2e91","maxDrawdownBps()":"5661d461","maxPositionSizeBps()":"f9fd7cac","owner()":"8da5cb5b","paused()":"5c975abb","renounceOwnership()":"715018a6","setAgentAuthorization(address,bool)":"0911e864","setPaused(bool)":"16c38b3c","setRiskLimits(uint256,uint256)":"770330ea","totalDeposits()":"7d882097","transferOwnership(address)":"f2fde38b","usdc()":"3e413bee","withdraw(uint256)":"2e1a7d4d"},"id":32}