{"abi":[{"type":"constructor","inputs":[],"stateMutability":"nonpayable"},{"type":"function","name":"SIG_MARKET_BUY","inputs":[],"outputs":[{"name":"","type":"bytes32","internalType":"bytes32"}],"stateMutability":"view"},{"type":"function","name":"SIG_MARKET_SELL","inputs":[],"outputs":[{"name":"","type":"bytes32","internalType":"bytes32"}],"stateMutability":"view"},{"type":"function","name":"SIG_UNISWAP_ADD_LIQ","inputs":[],"outputs":[{"name":"","type":"bytes32","internalType":"bytes32"}],"stateMutability":"view"},{"type":"function","name":"SIG_UNISWAP_REMOVE_LIQ","inputs":[],"outputs":[{"name":"","type":"bytes32","internalType":"bytes32"}],"stateMutability":"view"},{"type":"function","name":"authorizedAgents","inputs":[{"name":"","type":"address","internalType":"address"}],"outputs":[{"name":"","type":"bool","internalType":"bool"}],"stateMutability":"view"},{"type":"function","name":"logSignal","inputs":[{"name":"signalType","type":"bytes32","internalType":"bytes32"},{"name":"tokenIn","type":"address","internalType":"address"},{"name":"tokenOut","type":"address","internalType":"address"},{"name":"amountIn","type":"uint256","internalType":"uint256"},{"name":"tickLower","type":"int24","internalType":"int24"},{"name":"tickUpper","type":"int24","internalType":"int24"}],"outputs":[],"stateMutability":"nonpayable"},{"type":"function","name":"logSignalBatch","inputs":[{"name":"signals","type":"tuple[]","internalType":"struct SignalRegistry.SignalParams[]","components":[{"name":"signalType","type":"bytes32","internalType":"bytes32"},{"name":"tokenIn","type":"address","internalType":"address"},{"name":"tokenOut","type":"address","internalType":"address"},{"name":"amountIn","type":"uint256","internalType":"uint256"},{"name":"tickLower","type":"int24","internalType":"int24"},{"name":"tickUpper","type":"int24","internalType":"int24"}]}],"outputs":[],"stateMutability":"nonpayable"},{"type":"function","name":"owner","inputs":[],"outputs":[{"name":"","type":"address","internalType":"address"}],"stateMutability":"view"},{"type":"function","name":"renounceOwnership","inputs":[],"outputs":[],"stateMutability":"nonpayable"},{"type":"function","name":"setAgentAuthorization","inputs":[{"name":"agent","type":"address","internalType":"address"},{"name":"status","type":"bool","internalType":"bool"}],"outputs":[],"stateMutability":"nonpayable"},{"type":"function","name":"totalSignalsLogged","inputs":[],"outputs":[{"name":"","type":"uint256","internalType":"uint256"}],"stateMutability":"view"},{"type":"function","name":"transferOwnership","inputs":[{"name":"newOwner","type":"address","internalType":"address"}],"outputs":[],"stateMutability":"nonpayable"},{"type":"event","name":"OwnershipTransferred","inputs":[{"name":"previousOwner","type":"address","indexed":true,"internalType":"address"},{"name":"newOwner","type":"address","indexed":true,"internalType":"address"}],"anonymous":false},{"type":"event","name":"SignalLogged","inputs":[{"name":"agentAddress","type":"address","indexed":true,"internalType":"address"},{"name":"signalType","type":"bytes32","indexed":true,"internalType":"bytes32"},{"name":"tokenIn","type":"address","indexed":true,"internalType":"address"},{"name":"tokenOut","type":"address","indexed":false,"internalType":"address"},{"name":"amountIn","type":"uint256","indexed":false,"internalType":"uint256"},{"name":"tickLower","type":"int24","indexed":false,"internalType":"int24"},{"name":"tickUpper","type":"int24","indexed":false,"internalType":"int24"},{"name":"timestamp","type":"uint256","indexed":false,"internalType":"uint256"}],"anonymous":false},{"type":"error","name":"EmptySignalData","inputs":[]},{"type":"error","name":"NotAuthorizedAgent","inputs":[]},{"type":"error","name":"OwnableInvalidOwner","inputs":[{"name":"owner","type":"address","internalType":"address"}]},{"type":"error","name":"OwnableUnauthorizedAccount","inputs":[{"name":"account","type":"address","internalType":"address"}]}],"bytecode":{"object":"0x608060405234801561000f575f80fd5b50338061003557604051631e4fbdf760e01b81525f600482015260240160405180910390fd5b61003e81610049565b506001600255610098565b5f80546001600160a01b038381166001600160a01b0319831681178455604051919092169283917f8be0079c531659141344cd1fd0a4f28419497f9722a3daafe3b4186f6b6457e09190a35050565b6107ba806100a55f395ff3fe608060405234801561000f575f80fd5b50600436106100b1575f3560e01c806371dd3f651161006e57806371dd3f651461011c57806380d59e27146101245780638da5cb5b1461012c5780639375fbba14610146578063efd760651461014e578063f2fde38b14610180575f80fd5b806307e77d0d146100b55780630911e864146100d15780633f0346b0146100e657806346f062c6146100ee5780635cba0a8914610101578063715018a614610114575b5f80fd5b6100be60025481565b6040519081526020015b60405180910390f35b6100e46100df3660046105d7565b610193565b005b6100be6101c5565b6100e46100fc366004610610565b6101f8565b6100e461010f366004610690565b6103bd565b6100e461046b565b6100be61047e565b6100be6104af565b5f546040516001600160a01b0390911681526020016100c8565b6100be6104ce565b61017061015c3660046106f2565b60016020525f908152604090205460ff1681565b60405190151581526020016100c8565b6100e461018e3660046106f2565b6104ff565b61019b610541565b6001600160a01b03919091165f908152600160205260409020805460ff1916911515919091179055565b604051694d41524b45545f42555960b01b6020820152602a015b6040516020818303038152906040528051906020012081565b335f9081526001602052604090205460ff16610227576040516350699b3960e01b815260040160405180910390fd5b805f81900361024957604051630806a89160e31b815260040160405180910390fd5b8060025f82825461025a9190610726565b909155505f90505b818110156103b75783838281811061027c5761027c61073f565b905060c00201602001602081019061029491906106f2565b6001600160a01b03168484838181106102af576102af61073f565b60c00291909101359050337f0431bdf7e64ba34c984d42651f19aa73db15a804af8e6d5199b91ddfc0d0208b8787868181106102ed576102ed61073f565b905060c00201604001602081019061030591906106f2565b8888878181106103175761031761073f565b905060c00201606001358989888181106103335761033361073f565b905060c00201608001602081019061034b9190610753565b8a8a8981811061035d5761035d61073f565b905060c0020160a00160208101906103759190610753565b604080516001600160a01b039590951685526020850193909352600291820b84840152900b6060830152426080830152519081900360a00190a4600101610262565b50505050565b335f9081526001602052604090205460ff166103ec576040516350699b3960e01b815260040160405180910390fd5b60028054905f6103fb8361076c565b9091555050604080516001600160a01b03868116825260208201869052600285810b8385015284900b6060830152426080830152915191871691889133917f0431bdf7e64ba34c984d42651f19aa73db15a804af8e6d5199b91ddfc0d0208b9181900360a00190a4505050505050565b610473610541565b61047c5f61056d565b565b6040517f554e49535741505f56335f4144445f4c4951554944495459000000000000000060208201526038016101df565b6040516a13505492d15517d4d1531360aa1b6020820152602b016101df565b6040517f554e49535741505f56335f52454d4f56455f4c495155494449545900000000006020820152603b016101df565b610507610541565b6001600160a01b03811661053557604051631e4fbdf760e01b81525f60048201526024015b60405180910390fd5b61053e8161056d565b50565b5f546001600160a01b0316331461047c5760405163118cdaa760e01b815233600482015260240161052c565b5f80546001600160a01b038381166001600160a01b0319831681178455604051919092169283917f8be0079c531659141344cd1fd0a4f28419497f9722a3daafe3b4186f6b6457e09190a35050565b80356001600160a01b03811681146105d2575f80fd5b919050565b5f80604083850312156105e8575f80fd5b6105f1836105bc565b915060208301358015158114610605575f80fd5b809150509250929050565b5f8060208385031215610621575f80fd5b823567ffffffffffffffff80821115610638575f80fd5b818501915085601f83011261064b575f80fd5b813581811115610659575f80fd5b86602060c08302850101111561066d575f80fd5b60209290920196919550909350505050565b8035600281900b81146105d2575f80fd5b5f805f805f8060c087890312156106a5575f80fd5b863595506106b5602088016105bc565b94506106c3604088016105bc565b9350606087013592506106d86080880161067f565b91506106e660a0880161067f565b90509295509295509295565b5f60208284031215610702575f80fd5b61070b826105bc565b9392505050565b634e487b7160e01b5f52601160045260245ffd5b8082018082111561073957610739610712565b92915050565b634e487b7160e01b5f52603260045260245ffd5b5f60208284031215610763575f80fd5b61070b8261067f565b5f6001820161077d5761077d610712565b506001019056fea2646970667358221220c2a1efa5324abe61c27f38e9bdd96c0a0ee72f87a319edb84552aed50bff1a5c64736f6c63430008180033","linkReferences":{}},"methodIdentifiers":{"SIG_MARKET_BUY()":"3f0346b0","SIG_MARKET_SELL()":"80d59e27","SIG_UNISWAP_ADD_LIQ()":"71dd3f65","SIG_UNISWAP_REMOVE_LIQ()":"9375fbba","authorizedAgents(address)":"efd76065","logSignal(bytes32,address,address,uint256,int24,int24)":"5cba0a89","logSignalBatch((bytes32,address,address,uint256,int24,int24)[])":"46f062c6","owner()":"8da5cb5b","renounceOwnership()":"715018a6","setAgentAuthorization(address,bool)":"0911e864","totalSignalsLogged()":"07e77d0d","transferOwnership(address)":"f2fde38b"},"id":33}